{
  "_format": "hh-sol-artifact-1",
  "contractName": "Recovery",
  "sourceName": "contracts/Recovery.sol",
  "abi": [
    {
      "inputs": [
        {
          "internalType": "address[]",
          "name": "_guardians",
          "type": "address[]"
        }
      ],
      "stateMutability": "nonpayable",
      "type": "constructor"
    },
    {
      "inputs": [
        {
          "internalType": "address",
          "name": "_newOwner",
          "type": "address"
        }
      ],
      "name": "confirmRecovery",
      "outputs": [],
      "stateMutability": "nonpayable",
      "type": "function"
    },
    {
      "inputs": [
        {
          "internalType": "address",
          "name": "",
          "type": "address"
        }
      ],
      "name": "confirmed",
      "outputs": [
        {
          "internalType": "bool",
          "name": "",
          "type": "bool"
        }
      ],
      "stateMutability": "view",
      "type": "function"
    },
    {
      "inputs": [],
      "name": "confirmedCount",
      "outputs": [
        {
          "internalType": "uint256",
          "name": "",
          "type": "uint256"
        }
      ],
      "stateMutability": "view",
      "type": "function"
    },
    {
      "inputs": [
        {
          "internalType": "address",
          "name": "",
          "type": "address"
        }
      ],
      "name": "guardian",
      "outputs": [
        {
          "internalType": "bool",
          "name": "",
          "type": "bool"
        }
      ],
      "stateMutability": "view",
      "type": "function"
    },
    {
      "inputs": [],
      "name": "owner",
      "outputs": [
        {
          "internalType": "address",
          "name": "",
          "type": "address"
        }
      ],
      "stateMutability": "view",
      "type": "function"
    }
  ],
  "bytecode": "0x60806040523480156200001157600080fd5b5060405162000a3a38038062000a3a833981810160405281019062000037919062000304565b336000806101000a81548173ffffffffffffffffffffffffffffffffffffffff021916908373ffffffffffffffffffffffffffffffffffffffff16021790555060005b81518110156200010e5760018060008484815181106200009f576200009e62000355565b5b602002602001015173ffffffffffffffffffffffffffffffffffffffff1673ffffffffffffffffffffffffffffffffffffffff16815260200190815260200160002060006101000a81548160ff02191690831515021790555080806200010590620003bd565b9150506200007a565b50506200040a565b6000604051905090565b600080fd5b600080fd5b600080fd5b6000601f19601f8301169050919050565b7f4e487b7100000000000000000000000000000000000000000000000000000000600052604160045260246000fd5b6200017a826200012f565b810181811067ffffffffffffffff821117156200019c576200019b62000140565b5b80604052505050565b6000620001b162000116565b9050620001bf82826200016f565b919050565b600067ffffffffffffffff821115620001e257620001e162000140565b5b602082029050602081019050919050565b600080fd5b600073ffffffffffffffffffffffffffffffffffffffff82169050919050565b60006200022582620001f8565b9050919050565b620002378162000218565b81146200024357600080fd5b50565b60008151905062000257816200022c565b92915050565b6000620002746200026e84620001c4565b620001a5565b905080838252602082019050602084028301858111156200029a5762000299620001f3565b5b835b81811015620002c75780620002b2888262000246565b8452602084019350506020810190506200029c565b5050509392505050565b600082601f830112620002e957620002e86200012a565b5b8151620002fb8482602086016200025d565b91505092915050565b6000602082840312156200031d576200031c62000120565b5b600082015167ffffffffffffffff8111156200033e576200033d62000125565b5b6200034c84828501620002d1565b91505092915050565b7f4e487b7100000000000000000000000000000000000000000000000000000000600052603260045260246000fd5b7f4e487b7100000000000000000000000000000000000000000000000000000000600052601160045260246000fd5b6000819050919050565b6000620003ca82620003b3565b91507fffffffffffffffffffffffffffffffffffffffffffffffffffffffffffffffff8203620003ff57620003fe62000384565b5b600182019050919050565b610620806200041a6000396000f3fe608060405234801561001057600080fd5b50600436106100575760003560e01c80638da5cb5b1461005c578063a26cc6b21461007a578063a9d9979514610098578063bc1c2804146100c8578063f29e2236146100e4575b600080fd5b610064610114565b60405161007191906103a7565b60405180910390f35b610082610138565b60405161008f91906103db565b60405180910390f35b6100b260048036038101906100ad9190610427565b61013e565b6040516100bf919061046f565b60405180910390f35b6100e260048036038101906100dd9190610427565b61015e565b005b6100fe60048036038101906100f99190610427565b61033c565b60405161010b919061046f565b60405180910390f35b60008054906101000a900473ffffffffffffffffffffffffffffffffffffffff1681565b60025481565b60036020528060005260406000206000915054906101000a900460ff1681565b600160003373ffffffffffffffffffffffffffffffffffffffff1673ffffffffffffffffffffffffffffffffffffffff16815260200190815260200160002060009054906101000a900460ff166101ea576040517f08c379a00000000000000000000000000000000000000000000000000000000081526004016101e1906104e7565b60405180910390fd5b600360003373ffffffffffffffffffffffffffffffffffffffff1673ffffffffffffffffffffffffffffffffffffffff16815260200190815260200160002060009054906101000a900460ff1615610277576040517f08c379a000000000000000000000000000000000000000000000000000000000815260040161026e90610553565b60405180910390fd5b6001600360003373ffffffffffffffffffffffffffffffffffffffff1673ffffffffffffffffffffffffffffffffffffffff16815260200190815260200160002060006101000a81548160ff021916908315150217905550600260008154809291906102e2906105a2565b9190505550600280541061033957806000806101000a81548173ffffffffffffffffffffffffffffffffffffffff021916908373ffffffffffffffffffffffffffffffffffffffff16021790555061033861035c565b5b50565b60016020528060005260406000206000915054906101000a900460ff1681565b6000600281905550565b600073ffffffffffffffffffffffffffffffffffffffff82169050919050565b600061039182610366565b9050919050565b6103a181610386565b82525050565b60006020820190506103bc6000830184610398565b92915050565b6000819050919050565b6103d5816103c2565b82525050565b60006020820190506103f060008301846103cc565b92915050565b600080fd5b61040481610386565b811461040f57600080fd5b50565b600081359050610421816103fb565b92915050565b60006020828403121561043d5761043c6103f6565b5b600061044b84828501610412565b91505092915050565b60008115159050919050565b61046981610454565b82525050565b60006020820190506104846000830184610460565b92915050565b600082825260208201905092915050565b7f4e6f7420677561726469616e0000000000000000000000000000000000000000600082015250565b60006104d1600c8361048a565b91506104dc8261049b565b602082019050919050565b60006020820190508181036000830152610500816104c4565b9050919050565b7f416c726561647920636f6e6669726d6564000000000000000000000000000000600082015250565b600061053d60118361048a565b915061054882610507565b602082019050919050565b6000602082019050818103600083015261056c81610530565b9050919050565b7f4e487b7100000000000000000000000000000000000000000000000000000000600052601160045260246000fd5b60006105ad826103c2565b91507fffffffffffffffffffffffffffffffffffffffffffffffffffffffffffffffff82036105df576105de610573565b5b60018201905091905056fea264697066735822122075b1c3d632b731a62739881990992eaa43c9d8078aaa8be9c744bb571bbb34aa64736f6c63430008120033",
  "linkReferences": {},
  "deployedLinkReferences": {}
}